:100000000C9434000C9446000C9446000C9446006A
:100010000C9446000C9446000C9446000C94460048
:100020000C9446000C9446000C9446000C94460038
:100030000C9446000C9446000C9446000C94460028
:100040000C9446000C9446000C9446000C94460018
:100050000C9446000C9446000C9446000C94460008
:100060000C9446000C94460011241FBECFEFD8E03C
:10007000DEBFCDBF21E0A0E0B1E001C01D92A830FD
:10008000B207E1F70E9448000C9437020C9400007C
:1000900084B1816084B984B18D7F84B985B18C7F4E
:1000A00085B910928000E1E8F0E08081808385B11D
:1000B000816085B985E38A95F1F7000085B18E7F6F
:1000C00085B9199BFECF1092850010928400199972
:1000D000FECF609184007091850080E090E00E94E6
:1000E0003C0120E030E040E850E40E94CA010E9458
:1000F00006016093040170930501809306019093BB
:1001000007010E943E0120E030E048E652E40E94F0
:1001100094000E9406016093000170930101809396
:10012000020190930301C3CF0E94A8000C94900198
:100130000E94890158F00E94820140F029F45F3F3B
:1001400029F00C94790151110C94C4010C947F0195
:100150000E94A10168F39923B1F3552391F3951BF4
:10016000550BBB27AA2762177307840738F09F5FD8
:100170005F4F220F331F441FAA1FA9F335D00E2E45
:100180003AF0E0E832D091505040E695001CCAF7B2
:100190002BD0FE2F29D0660F771F881FBB1F261775
:1001A00037074807AB07B0E809F0BB0B802DBF014C
:1001B000FF2793585F4F3AF09E3F510578F00C941B
:1001C00079010C94C4015F3FE4F3983ED4F3869523
:1001D00077956795B795F7959F5FC9F7880F911D3C
:1001E0009695879597F90895E1E0660F771F881F28
:1001F000BB1F621773078407BA0720F0621B730BDB
:10020000840BBA0BEE1F88F7E09508950E940D014C
:100210006894B1110C94C40108950E94A90188F05A
:100220009F5798F0B92F9927B751B0F0E1F0660FBA
:10023000771F881F991F1AF0BA95C9F714C0B130FB
:1002400091F00E94C301B1E008950C94C301672F9F
:10025000782F8827B85F39F0B93FCCF3869577952A
:100260006795B395D9F73EF4909580957095619513
:100270007F4F8F4F9F4F0895E89409C097FB3EF43E
:1002800090958095709561957F4F8F4F9F4F9923E3
:10029000A9F0F92F96E9BB279395F6958795779561
:1002A0006795B795F111F8CFFAF4BB0F11F460FF21
:1002B0001BC06F5F7F4F8F4F9F4F16C0882311F079
:1002C00096E911C0772321F09EE8872F762F05C08D
:1002D000662371F096E8862F70E060E02AF09A9528
:1002E000660F771F881FDAF7880F9695879597F91D
:1002F000089597F99F6780E870E060E008959FEFA8
:1003000080EC089500240A941616170618060906AC
:10031000089500240A94121613061406050608957B
:10032000092E0394000C11F4882352F0BB0F40F403
:10033000BF2B11F460FF04C06F5F7F4F8F4F9F4F43
:10034000089557FD9058440F551F59F05F3F71F0C5
:100350004795880F97FB991F61F09F3F79F087952C
:100360000895121613061406551FF2CF4695F1DFB5
:1003700008C0161617061806991FF1CF8695710545
:10038000610508940895E894BB2766277727CB0179
:1003900097F908950E94DD010C9490010E9482015A
:1003A00038F00E94890120F0952311F00C94790116
:1003B0000C947F0111240C94C4010E94A10170F3DC
:1003C000959FC1F3950F50E0551F629FF001729FFA
:1003D000BB27F00DB11D639FAA27F00DB11DAA1F09
:1003E000649F6627B00DA11D661F829F2227B00D56
:1003F000A11D621F739FB00DA11D621F839FA00DE1
:10040000611D221F749F3327A00D611D231F849F30
:10041000600D211D822F762F6A2F11249F57504087
:100420009AF0F1F088234AF0EE0FFF1FBB1F661F02
:10043000771F881F91505040A9F79E3F510580F0CB
:100440000C9479010C94C4015F3FE4F3983ED4F31B
:10045000869577956795B795F795E7959F5FC1F76F
:10046000FE2B880F911D9695879597F90895F8941E
:02047000FFCFBC
:00000001FF
